:020000040800F2
:10000000380D0020C1010008E9300008892B0008E4
:10001000E5300008090B00089940000800000000C6
:100020000000000000000000000000006D33000828
:10003000270C00080000000099320008353800083D
:10004000DB010008DB010008DB010008DB01000820
:10005000DB010008DB010008DB010008DB01000810
:10006000DB010008DB010008DB010008DB01000800
:10007000DB0100080D0B0008DB010008DB010008B4
:10008000DB010008DB010008DB010008DB010008E0
:10009000DB010008DB010008DB010008DB010008D0
:1000A000DB010008DB010008DB010008DB010008C0
:1000B000DB010008DB010008DB010008DB010008B0
:1000C000DB010008DB010008DB010008DB010008A0
:1000D000DB010008DB010008DB010008DB01000890
:1000E000DB010008DB010008DB010008DB01000880
:1000F000DB010008DB010008DB010008DB01000870
:10010000DB010008DB010008DB010008DB0100085F
:10011000753A0008DB01000881390008DB0100089E
:10012000DB010008DB010008DB010008DB0100083F
:10013000DB010008DB010008DB010008DB0100082F
:10014000DB010008DB010008DB010008DB0100081F
:10015000DB010008DB010008DB010008DB0100080F
:10016000DB010008DB010008DB010008DB010008FF
:10017000DB010008DB010008DB01000800000000D3
:10018000DB010008DB010008DB010008DB010008DF
:10019000DB010008DB010008DB010008DB010008CF
:1001A0000000000000000000DB010008DFF80CD0B8
:1001B00000F00CFB004800473D4D0008380D0020C2
:1001C0000648804706480047FEE7FEE7FEE7FEE7F1
:1001D000FEE7FEE7FEE7FEE7FEE7FEE71D39000863
:1001E000AD0100082DE9F05F0546002092469B46D0
:1001F00088460646814640241BE02846414647463D
:10020000224600F02DF953465A46C01A914110D3A8
:1002100011461846224600F014F92D1A67EB010822
:100220004F4622460120002100F00BF917EB000990
:100230004E41201EA4F10104DFDC484631462A4627
:100240004346BDE8F09F2DE9F0410024061B2546FA
:1002500071F1000605DA01240027D0EB070067EBF7
:100260000101161E73F1000605DA0027D2EB070222
:10027000012567EB0303FFF7B5FF86460E461746D9
:100280009C46AC4204D00025D0EB050E65EB010680
:1002900024B10020D2EB000760EB030C704631461E
:1002A0003A466346BDE8F08140EA01039B0703D06C
:1002B00009E008C9121F08C0042AFAD203E011F8A5
:1002C000013B00F8013B521EF9D27047D2B201E067
:1002D00000F8012B491EFBD270470022F6E710B54B
:1002E00013460A4604461946FFF7F0FF204610BDA4
:1002F0002DE9F04D81EA030404F0004B21F00045A4
:1003000014464FF0000A23F0004150EA050220D0C5
:1003100054EA01021DD0C5F30A570246C5F3130380
:10032000C1F31300C1F30A5640F4801543F480135F
:10033000A7EB0608101BD64608F2FD3873EB050044
:1003400002D308F1010801E092185B41B8F1000FF7
:1003500003DA00200146BDE8F08D00204FF4801143
:10036000064684460EE0171B73EB050705D3121BE8
:1003700063EB050306434CEA010C49084FEA3000E1
:1003800092185B4150EA0107EDD152EA030012D006
:1003900082EA040083EA0501084305D0101BAB4143
:1003A00006D20122002306E000224FF0004302E0C3
:1003B0006FF0010253101AEB06004CEB085110EBE2
:1003C0000A0041EB0B01BDE8F04D00F059B80EB545
:1003D000C10F80EAE0700844CA07002140F23343AD
:1003E0008DE80E000A460B4600F059F803B000BD38
:1003F00000F0004230F000400AD0C10D01F56071FC
:10040000C0F3160042EA0151C20840071143704789
:1004100000200146704730B50B46014600202022DF
:10042000012409E021FA02F59D4205D303FA02F501
:10043000491B04FA02F52844151EA2F10102F1DC61
:1004400030BD202A04DB203A00FA02F10020704778
:100450009140C2F1200320FA03F319439040704702
:10046000202A04DB203A21FA02F00021704721FA09
:1004700002F3D040C2F12002914008431946704770
:1004800010B5141E73F1000408DA401C41F100019C
:1004900092185B411A4301D120F0010010BD2DE9F3
:1004A000F04D92469B4611B1B1FA81F202E0B0FAEA
:1004B00080F220329046FFF7C4FF04460F4640EA20
:1004C0000A0041EA0B0153465A46084313D011462D
:1004D00053EA010019D0C8F140025046FFF7C0FFAF
:1004E00005460E46504659464246FFF7AAFF0843C6
:1004F00005D0012004E020463946BDE8F08D0020FB
:10050000054346EAE0762C4337430A986305E40A3C
:10051000A0EB08000022FD0A44EA47540A3002D545
:1005200000200146E9E7010510196941DDE90845A8
:1005300000196941BDE8F04DA2E72DE9FE4F804664
:1005400081EA0300C00F0C46009021F0004123F027
:100550000045B8EB0200A94105D24046214690462D
:100560001C460B46024623F00040104347D0270D9F
:10057000C7F30A00C3F30A510290401A01904028C1
:100580006BDAC3F3130040F4801B0098924620B14D
:100590000023D2EB030A63EB0B0B01985946C0F121
:1005A00040025046FFF74DFF06460D46504659465D
:1005B000019A00F01DF910EB08006141002487EA60
:1005C000115284EAE7731A4340D0009A62B3019A49
:1005D000012A4FEA075215DC001B61EB02014FF0C4
:1005E000004202EA0752CDE90042001C41F58011A9
:1005F00032462B46FFF753FF03B0BDE8F08F40466D
:100600002146F9E7001B61EB0201001C41F5801354
:1006100000185B412018A2F5001747EB030140EAE0
:10062000D570B6196D4111E06D084FEA360645EAFE
:10063000C0754FEA0752001B61EB0201001C41F537
:10064000801149084FEA30000019514132462B46CB
:1006500003B0BDE8F04FFFF713BF00980122400040
:100660000023D0EB020263EBE073009821464FEACF
:10067000E074B8EB000061EB0401E9E783F00043AC
:100680005BE781F0004158E72DE9FE4F81EA030462
:1006900004F0004421F0004100944FF0000B23F0DF
:1006A000004350EA01045ED052EA03045BD0C3F376
:1006B0000A54C1F30A552C44A4F2F3340194A0FB6C
:1006C0000254C1F3130141F48011C3F3130343F443
:1006D000801301FB024400FB034E840A970A44EA9C
:1006E000815447EA8357A4FB076802958D0A05FBEE
:1006F00007854FEA932C04FB0C542705029D4FEA13
:10070000065847EA1637B5EB08056EEB070C870E5F
:10071000920E47EA811742EA8312A7FB0201B6EB69
:100720000B0164EB00042B0D43EA0C335E1844EB21
:100730001C50DA465146E7FB0201C5F313044FEAA9
:100740000B3343EA14534FEA0432019C43EA060395
:10075000A4F10C040294009CCDE900B4FFF79FFEC5
:1007600003B0BDE8F08F00200146F9E7C1F30A525B
:10077000C1F3130140F2FF3341F480119A4202DACF
:1007800000200146704740F233439A42A2F23342BE
:1007900002DC5242FFF764BEFFF753BE30B5041EC1
:1007A00071F1000404DB4FF00044404264EB0101AE
:1007B000141E73F1000405DB1C464FF00043524247
:1007C00063EB0403994208BF904230BD064C074DCD
:1007D00006E0E06840F0010394E807009847103411
:1007E000AC42F6D3FFF7E6FCE05B0008005C0008D3
:1007F000202A06DBCB17203A41FA02F043EAE073E5
:1008000006E041FA02F3D040C2F1200291400843D1
:10081000194670472DE9F34F89B0824660484089F8
:100820000A99A1EB00245E4800890021E217A0FB91
:10083000043C01FB04C100FB02104022CDE9023060
:100840000023DDE90201FFF7FEFC554A92884FF4D0
:100850000033A2FB0323844608461CEB02015841E7
:10086000CDE906104E48C0880021E217A0FB043CE9
:1008700001FB04C100FB02108022CDE902300023FD
:10088000DDE90201FFF7DFFC454A52884FF480336F
:10089000A2FB0332C0185141CDE9040140488089D0
:1008A0000021E217A0FB043C01FB04C100FB021085
:1008B0004FF40002CDE902300023DDE90201FFF729
:1008C000C2FC4FF4FA6110EB01094FF000010D4634
:1008D0000E460F468846B9F5FA6F13DAA9F5FA61A4
:1008E000494301EB810000EBD0714D10EE17A9F5E3
:1008F000FA61494301EB8100C11700EB91718F1040
:100900004FEAE7782748814516DA09F2DC50404380
:10091000C0EBC000451946EBE07609F2DC5101FB63
:1009200001F101EB410202EBC10000EBD0714FEA93
:100930006101CF1948EBE178DDE90610491B60EB56
:100940000600CDE90610DDE90410C91B60EB0800C4
:10095000CDE904100022DDE90401AAFB003C02FB02
:1009600000C00AFB01004FF40012CDE90030002363
:10097000DDE90001FFF767FCDDE90632C01A61EB33
:1009800002014FF400420023CDE90201FFF75BFCB6
:10099000834600EE10BAB8EEC00A0BB0BDE8F08F87
:1009A000A400002024FAFFFF3EB5044600250020E5
:1009B00002900190002280210F4800F095FDA020B8
:1009C00000EB4400C0B28DF808003220032301AAD6
:1009D00002A90090094801F0F4FA0122802106489A
:1009E00000F082FD9DF806009DF805104FF480721E
:1009F00012FB010528463EBD000C0240A008002065
:100A000038B5044600228021094800F06DFD04F14C
:100A10004000C0B20090322301226946054801F02F
:100A2000FDF901228021024800F05EFD38BD000082
:100A3000000C0240A008002010B50820FFF7E0FFDE
:100A400010BD10B51820FFF7DBFF10BD10B500F08A
:100A50003FF800F003F8FFF7F4FF10BD10B50024D5
:100A600007E02046FFF7A0FF034921F81400601CAF
:100A7000C4B2082CF5DB10BDA40000203EB5002256
:100A80008021114800F030FD00208DF80800322050
:100A9000042301AA02A900900C4801F092FA012255
:100AA0008021094800F020FD9DF80500C0EB0040C2
:100AB0009DF806104FF4807212FB01009DF807109C
:100AC000441820463EBD0000000C0240A008002053
:100AD00008B51E20009000228021094800F004FD86
:100AE000322301226946074801F098F90A2000F0F4
:100AF0001EFB01228021024800F0F6FC08BD000028
:100B0000000C0240A008002000BFFEE710B502481C
:100B100000F028F910BD00004008002001460878C8
:100B200010381823B0FBF3F20848805CC865032A2C
:100B300005D908686FF30900001D886503E008689F
:100B40006FF309008865886D70470000C05B00087E
:100B5000014600208A6A8B69CBB932B1012A0DD0D7
:100B6000022A03D0032A10D10EE000BFCB6A03F0A3
:100B70008073B3F1807F00D1012007E0CB6AB3F12D
:100B8000C07F00D1012001E000E000BF34E08B69AC
:100B9000B3F5005F1AD132B1012A07D0022A03D07F
:100BA000032A11D10AE000BF01200EE0CB6A03F056
:100BB0008073B3F1807F00D1012006E0CB6AB3F1EE
:100BC000C07F00D1012000E000BF15E032B1012A52
:100BD00005D0022A04D0032A0CD103E000BF00BFD5
:100BE000012008E0CB6A03F08073B3F1807F00D16D
:100BF000012000E000BF00BF704730B504682468E2
:100C000024F4802405682C60046863608468402CA8
:100C100004D10468A2600468E16003E00468A16094
:100C20000468E26030BD704710B50446204602F00B
:100C30009FFB01220249034801F0FEFD10BD0000A8
:100C40002C000020C007002010B500F01FF847F26C
:100C5000305200231946024803F0BEFE10BD0000CA
:100C60002800002010B5024804F0C4FE10BD0000AA
:100C7000C400002010B5044804F0CCFE08B90120DF
:100C800010BD0020FCE70000C400002010B54FF4A8
:100C9000A0620249024804F0B4FE10BDD800002052
:100CA000C40000200148807C70470000C400002080
:100CB00010B5024804F0B7FE10BD0000C4000020CB
:100CC00010B503480178034804F0C2FE10BD0000CF
:100CD0002C000020C4000020014691F835000228B5
:100CE00003D08020486501207047052081F8350039
:100CF0000868006820F001000A6810600020F3E72F
:100D000070B504460CB9012070BD94F83500022876
:100D100000D1F9E72068006820F001002168086030
:100D20000020216808602168486021688860216887
:100D3000C860216808612120216848612046FFF7CA
:100D4000EDFE054694F85C103F208840A860002026
:100D5000606584F8350000BF84F8340000BF00BF30
:100D6000D2E70000F8B50446002000908C480068E7
:100D70004FF41651B0FBF1F7A56D2E6894F85C1096
:100D800008208840304098B12068006800F00400D6
:100D900070B12068006820F004002168086094F8B1
:100DA0005C1008208840A860606D40F0010060651C
:100DB00094F85C1001208840304068B12068406998
:100DC00000F0800040B194F85C1001208840A860D9
:100DD000606D40F00200606594F85C10042088406B
:100DE000304068B12068006800F0020040B194F81B
:100DF0005C1004208840A860606D40F004006065CD
:100E000094F85C1010208840304078B32068006867
:100E100000F0080050B394F85C1010208840A860DF
:100E20002068006800F4802080B12068006800F429
:100E3000002028B9206CC8B12046216C884715E0F5
:100E4000A06C98B12046A16C88470FE0206800682C
:100E500000F4807028B92068006820F0080021683C
:100E60000860206C10B12046216C884794F85C1013
:100E7000202088403040002865D02068006800F0BD
:100E8000100000285FD094F85C1020208840A860F3
:100E900094F83500052828D12068006820F0160055
:100EA000216808602068406920F08000216848615E
:100EB000206C08B9A06C28B12068006820F00800F8
:100EC0002168086094F85C103F208840A86000BF4B
:100ED000002084F8340000BF012084F83500206D24
:100EE00010B12046216D8847F8BD2068006800F4E5
:100EF000802080B12068006800F4002028B9606C70
:100F000010B12046616C88471DE0E06BD8B12046E7
:100F1000E16B884717E02068006800F4807068B9CA
:100F20002068006820F010002168086000BF0020E1
:100F300084F8340000BF012084F83500E06B10B164
:100F40002046E16B8847606D38B3606D00F00100AA
:100F5000F0B1052084F835002068006820F0010019
:100F60002168086000BF0098401C0090B84200D97A
:100F700005E02068006800F001000028F3D100BF00
:100F800000BF002084F8340000BF012084F8350041
:100F9000E06C10B12046E16C884700BFA4E7000078
:100FA000740000202DE9F0410446002500F0A2FA6B
:100FB000074614B90120BDE8F081606A00B100BFA6
:100FC00000BF002084F8340000BF022084F8350000
:100FD0002068006820F00100216808600AE000F045
:100FE00089FAC01B052805D920206065032084F8F4
:100FF0003500E0E72068006800F001000028EED12D
:101000002068056821480540D4E901010843E168EA
:1010100008432169084361690843A1690843E169FC
:101020000843216A08430543606A042803D1D4E9D0
:101030000B0108430543206805602068456925F0D9
:101040000705606A0543606A04280DD1A06A05435C
:10105000E06A48B12046FFF77BFD28B1402060657B
:10106000012084F83500A6E7206845612046FFF797
:1010700055FD064694F85C103F208840B060002083
:101080006065012084F83500002094E73F8010F06F
:101090002DE9F04704460D4616461F464FF000085E
:1010A000D4F8589000BF94F83400012802D10220EF
:1010B000BDE8F087012084F8340000BF94F83500C3
:1010C00001282BD1022084F83500002060653B46C2
:1010D000324629462046FFF790FD94F85C103F20E9
:1010E0008840C9F808002068006840F016002168B0
:1010F00008602068406940F0800021684861206CE9
:1011000028B12068006840F0080021680860206865
:10111000006840F001002168086006E000BF002080
:1011200084F8340000BF4FF002084046C0E731B5F4
:1011300000F0E0F90546009C601C00B1641C00BF93
:1011400000F0D8F9401BA042FAD338BDF0B50C46E8
:1011500000250022002300219CE0012606FA01F56B
:1011600004EA0502AA427DD106684FEA410C032732
:1011700007FA0CF7BE430660CF0800F1200656F8C8
:1011800027604F074FEAD76C0F2707FA0CF7BE43CB
:101190004FEAD10C00F1200747F82C6086684FEA2F
:1011A000410C032707FA0CF7BE4386604768012607
:1011B0008E40B7434760C6684FEA410C032707FAE1
:1011C0000CF7BE43C660354E8F0856F827308E07A1
:1011D000370F0F26BE403340314EB04201D10026BA
:1011E0002DE0304EB04201D1012628E02E4EB04213
:1011F00001D1022623E02D4EB04201D103261EE08C
:101200002B4EB04201D1042619E02A4EB04201D142
:10121000052614E0284EB04201D106260FE0274EE5
:10122000B04201D107260AE0254EB04201D108267E
:1012300005E0244EB04201D1092600E00A268F07BE
:101240003F0FBE409E4224D18E07370F0F2606FA6D
:1012500007F3124E8F0856F827609E430F4F4FEA50
:10126000910C00E015E047F82C60174E3668964365
:10127000154F3E603E1D366896433F1D3E603E1D45
:10128000366896433F1D3E603E1D366896433F1DBF
:101290003E60491C1029FFF460AFF0BD08380140E2
:1012A000000002400004024000080240000C02401E
:1012B000001002400014024000180240001C0240CE
:1012C0000020024000240240003C0140F8B50246E4
:1012D0000B460025002400200021E6E0012606FA46
:1012E00001F51E6806EA0504AC4273D15E68022E61
:1012F00002D05E68122E13D1CF0802F1200656F8F4
:1013000027004E07F70E0F26BE40B0434F07FF0ED3
:101310001E69BE403043CF0802F1200646F8270080
:1013200010684F000326BE40B0431E7906F0030646
:101330004F00BE40304310605E68012E08D05E68EA
:10134000022E05D05E68112E02D05E68122E13D1D7
:1013500090684F000326BE40B0434F00DE68BE4099
:1013600030439060506801268E40B0431E79C6F32A
:1013700000168E4030435060D0684F000326BE40B8
:10138000B0434F009E68BE403043D0605E6806F0B8
:101390008056B6F1805FA8D100BF00260096454E6A
:1013A000366846F48046434F3E603E46366806F453
:1013B0008046009600BF00BF3F4E8F0856F82700BA
:1013C0008E07370F0F26BE40B0433C4EB24202D1CB
:1013D00000262EE068E03A4EB24201D1012628E014
:1013E000384EB24201D1022623E0374EB24201D13B
:1013F00003261EE0354EB24201D1042619E0344ED8
:10140000B24201D1052614E0324EB24201D1062685
:101410000FE0314EB24201D107260AE02F4EB24210
:1014200001D1082605E02E4EB24201D1092600E086
:101430000A268F073F0FBE4030431F4E8F0846F8E5
:101440002700284E3068A0435E6806F48036B6F563
:10145000803F00D12043234E3060361D3068A043CA
:101460005E6806F40036B6F5003F00D120431D4EFD
:10147000361D3060361D3068A0435E6806F4801665
:10148000B6F5801F00D12043164E08363060361D59
:101490003068A0435E6806F40016B6F5001F00D160
:1014A0002043104E0C363060491C1029FFF416AF53
:1014B000F8BD0000443802400838014000000240F6
:1014C0000004024000080240000C024000100240EC
:1014D0000014024000180240001C0240002002409C
:1014E00000240240003C01400AB1816101E00B048C
:1014F0008361704701480068704700006C0000205D
:1015000002480068401C0149086070476C000020D8
:1015100010B50D48006840F400700B49086008469B
:10152000006840F4806008600846006840F48070FD
:101530000860032000F0A4F8002000F007F800F095
:1015400019F8002010BD0000003C024070B50446B0
:10155000074800684FF47A71B0FBF1F5284600F0B7
:1015600054FE00222146501E00F04BF8002070BDB2
:101570007400002010B5052000F082F8002211460A
:101580006FF00B0000F03DF8002211466FF00A00EA
:1015900000F037F8002211466FF0090000F031F832
:1015A00000221146501F00F02CF800221146101F97
:1015B00000F027F800221146901E00F022F80022C9
:1015C0001146501E00F01DF810BD000000BF00F0D5
:1015D0001F0201219140034A430942F8231000BF32
:1015E0007047000080E100E000BF00F01F02012111
:1015F00091404209920002F1E022C2F8001100BFBE
:1016000070472DE9F05F80460D461646002701F031
:101610006DFD074639462A46334601F00700C0F102
:10162000070ABAF1040F02D94FF0040A01E0C0F131
:10163000070AD14600F1040ABAF1070F02D24FF0AF
:10164000000A01E0A0F1030AD4464FF0010A0AFAA9
:1016500009FAAAF1010A0AEA020A0AFA0CFA4FF098
:10166000010B0BFA0CFBABF1010B0BEA030B4AEA83
:101670000B042146404601F041FDBDE8F09F00000B
:1016800000BF00F00702064B19684FF6FF03194030
:10169000044B0B4343EA0221014B196000BF704722
:1016A0000CED00E00000FA0570B504460D460CB9DB
:1016B000012070BD5848006800F00F00A84209D210
:1016C00055490D700846006800F00F00A84201D08F
:1016D0000120EEE7207800F0020002281DD12078DA
:1016E00000F00400042805D14C48006840F4E050A4
:1016F0004A490860207800F00800082805D14748CA
:10170000006840F46040454908604448006820F0A3
:10171000F000A168084341490860207800F001000A
:10172000A8B36068012807D13C4808380068C0F3B6
:101730004040B8B90120BCE76068022802D0606868
:10174000032807D1354808380068C0F3406048B91D
:101750000120AEE7314808380068C0F3400008B9FE
:101760000120A6E72D48006820F0030061680843C7
:101770002A490860FFF7BEFE064609E0FFF7BAFEF9
:10178000801B41F28831884202D9032091E707E0AB
:101790002248006800F00C006168B0EB810FEDD1C9
:1017A0001D48006800F00F00A84209D91A490D70C1
:1017B0000846006800F00F00A84201D0012078E739
:1017C000207800F00400042807D11448006820F4B1
:1017D000E050E168084311490860207800F00800F3
:1017E000082808D10D48006820F46040216940EACB
:1017F000C1000A49086000F03DF808490968C1F3D2
:101800000311074A515CC840064908600020FFF7F1
:101810009DFE00204DE70000003C024008380240D9
:10182000C85B000874000020014800687047000091
:101830007400002000B5FFF7F7FF04490968C1F301
:101840008221034A515CC84000BD000008380240B4
:10185000D85B000800B5FFF7E7FF04490968C1F34A
:101860004231034A515CC84000BD000008380240C4
:10187000D85B00082DE9F047002400250026A1468A
:101880002548006800F00C0020B1042805D0082885
:101890003AD105E0DFF8849039E0DFF8849036E053
:1018A0001D48001F006800F03F041B48001F00682F
:1018B00000F4800078B11A481749091F0968C1F37C
:1018C0008811A0FB01700146224600233846FEF72E
:1018D00089FC05460EE011480F49091F0968C1F34C
:1018E0008811A0FB01700146224600233846FEF70E
:1018F00079FC05460848001F0068C0F30140401C01
:101900004600B5FBF6F902E0DFF8109000BF00BF1B
:101910004846BDE8F0870000083802400024F40083
:1019200000366E0138B504460CB9012038BD207868
:1019300000F00100002874D0F848006800F00C00A6
:1019400004280DD0F548006800F00C00082813D1D9
:10195000F248001F006800F48000B0F5800F0BD142
:10196000EE4808380068C0F34040002859D060684D
:10197000002856D10120D9E700BF6068B0F5803F4C
:1019800008D1E6480838006840F48030E349083957
:1019900008601EE06068B0F5A02F0DD1DF48083860
:1019A000006840F48020DD49083908600846006876
:1019B00040F4803008600CE0D8480838006820F413
:1019C0008030D649083908600846006820F4802035
:1019D000086000BF606890B1FFF78CFD054606E027
:1019E000FFF788FD401B642801D903209EE7CB4800
:1019F00008380068C0F340400028F1D011E0FFF73C
:101A000079FD054606E0FFF775FD401B642801D906
:101A100003208BE7C14808380068C0F34040002825
:101A2000F1D1207800F0020002285FD1BB480068A5
:101A300000F00C0058B1B948006800F00C0008280C
:101A40001CD1B648001F006800F48000B0B9B3484C
:101A500008380068C0F3400020B1E068012801D0D8
:101A6000012063E7AD480838006820F0F8002169DC
:101A700040EAC100A9490839086037E0E06800B3CE
:101A80000120A7490860FFF735FD054606E0FFF78E
:101A900031FD401B022801D9032047E79F48083841
:101AA0000068C0F340000028F1D09C480838006866
:101AB00020F0F800216940EAC1009849083908601F
:101AC00014E0002096490860FFF714FD054606E083
:101AD000FFF710FD401B022801D9032026E78F489D
:101AE00008380068C0F340000028F1D1207800F0E9
:101AF000080008282CD16069A8B101208949086034
:101B0000FFF7F8FC054606E0FFF7F4FC401B02284F
:101B100001D903200AE781486C300068C0F3400017
:101B20000028F1D014E000207E490860FFF7E2FCB5
:101B3000054606E0FFF7DEFC401B022801D9032022
:101B4000F4E676486C300068C0F340000028F1D11C
:101B5000207800F0040004287FD100BF002000900E
:101B60006E483830006840F080506C493831086069
:101B70000846006800F08050009000BF00BF6A482F
:101B8000006840F4807068490860FFF7B3FC0546C0
:101B900006E0FFF7AFFC401B022801D90320C5E691
:101BA0006148006800F480700028F2D000BFA0688F
:101BB000012808D159486830006840F001005749B1
:101BC000683108601DE0A06805280DD153486830D1
:101BD000006840F004005149683108600846006818
:101BE00040F0010008600CE04C486830006820F0CC
:101BF00001004A49683108600846006820F0040086
:101C0000086000BFA068A0B1FFF774FC054608E0BB
:101C1000FFF770FC401B41F28831884201D9032054
:101C200084E63E4868300068C0F340000028EFD0EA
:101C300013E0FFF75FFC054608E0FFF75BFC401B85
:101C400041F28831884201D903206FE63348683079
:101C50000068C0F340000028EFD1A069B8B32F4856
:101C6000006800F00C00082860D0A06902283ED16E
:101C700000202B490866FFF73DFC054606E0FFF70C
:101C800039FC401B022801D903204FE623480838BD
:101C90000068C0F340600028F1D1D4E9070108438F
:101CA000616A40EA81110122A06AC2EB500041EA58
:101CB00000412C20005D41EA00601849091F0860BE
:101CC000012017490866FFF715FC054607E02FE0DD
:101CD000FFF710FC401B022801D9032026E60F481D
:101CE00008380068C0F340600028F1D020E00020F0
:101CF0000B490866FFF7FEFB054606E0FFF7FAFB17
:101D0000401B022801D9032010E604480838006867
:101D1000C0F340600028F1D10AE007E00838024033
:101D200000004742800E4742007000400120FDE560
:101D30000020FBE510B504460CB9012010BD606A17
:101D400000B900BF0021A16294F8510028B9002019
:101D500084F85000204600F033F8022084F8510047
:101D60002068006820F0400021680860D4E9010183
:101D70000843E16808432169084361690843218BEE
:101D800001F400710843E1690843216A0843A16A2C
:101D90000843216808600421A06901EA1040616AD3
:101DA0000843216848602068C06920F40060216809
:101DB000C86100206065012084F851000020BDE763
:101DC00010B586B004461249206888421DD100BF74
:101DD000002000900F48006840F480500D490860D2
:101DE0000846006800F48050009000BF00BFE0206B
:101DF000019002200290002003900320049005200F
:101E0000059001A90448FFF761FA06B010BD000073
:101E10000030014044380240000002402DE9F84300
:101E200004460D4617461E464FF00008C14600BF47
:101E300094F85000012802D10220BDE8F883012067
:101E400084F8500000BFFFF755FB804694F851001E
:101E5000012802D04FF00209A9E005B117B94FF0EF
:101E60000109A4E0032084F8510000206065256387
:101E7000A786E786A063A087E08760642064A068E7
:101E8000B0F5004F05D12068006840F4804021681B
:101E900008602068006800F04000402805D02068F5
:101EA000006840F0400021680860E068B0F5006F0D
:101EB0002AD1606810B1E08E012806D128882168F7
:101EC000C860AD1CE08E401EE08619E02068806886
:101ED00000F00200022807D128882168C860AD1CE4
:101EE000E08E401EE0860BE03EB1701C40B1FFF773
:101EF00001FBA0EB0800B04202D34FF0030956E00B
:101F0000E08E0028E2D129E0606810B1E08E01285F
:101F100006D12878216808736D1CE08E401EE0868B
:101F200019E02068806800F00200022807D12878B4
:101F3000216808736D1CE08E401EE0860BE03EB108
:101F4000701C40B1FFF7D6FAA0EB0800B04202D3F4
:101F50004FF003092BE0E08E0028E2D13346012246
:101F600002212046CDF8008001F0ABF910B14FF00E
:101F700003091CE042463146204601F08EF920B1AB
:101F80004FF001092020606511E0A06850B900BF42
:101F9000002000902068C068009020688068009051
:101FA00000BF00BF606D08B14FF0010900BF012004
:101FB00084F8510000BF002084F8500000BF48465C
:101FC0003BE72DE9FE4F04460D4616461F46DDF859
:101FD00030804FF0000A0020029081464FF0010B44
:101FE000019000BF94F85000012802D10220BDE802
:101FF000FE8F012084F8500000BFFFF77BFA814676
:1020000094F851A060680290BAF1010F0BD00298C9
:10201000B0F5827F04D1A06810B9BAF1040F02D0E4
:1020200002200190D2E00DB106B117B90120019054
:10203000CCE094F85100012802D1052084F8510029
:1020400000206065A663E787A7872563E786A786E4
:10205000206460642068006800F04000402805D0DB
:102060002068006840F0400021680860E068B0F532
:10207000006F43D1606810B1E08E012806D1288836
:102080002168C860AD1CE08E401EE0862FE0BBF1E9
:10209000000F10D0E08E70B12068806800F0020060
:1020A000022808D128882168C860AD1CE08E401E37
:1020B000E0864FF0000BE08F68B12068806800F088
:1020C000010040B12068C0683080B61CE08F401E1F
:1020D000E0874FF0010B08F1010040B1FFF70AFA69
:1020E000A0EB0900404502D3032001906EE0E08E92
:1020F0000028CCD1E08F0028C9D142E0606810B13F
:10210000E08E012806D12878216808736D1CE08EC6
:10211000401EE0862FE0BBF1000F10D0E08E70B1C2
:102120002068806800F00200022808D115F8010B31
:1021300021680873E08E401EE0864FF0000BE08FB0
:1021400068B12068806800F0010040B12068C06874
:1021500006F8010BE08F401EE0874FF0010B08F1FD
:10216000010040B1FFF7C6F9A0EB0900404502D3DA
:10217000032001902AE0E08E0028CCD1E08F0028D7
:10218000C9D14346012202212046CDF8009001F03A
:1021900098F810B10320019018E04A4641462046C5
:1021A00001F07BF820B101200190202060650DE056
:1021B000A06850B900BF002000902068C06800905F
:1021C00020688068009000BF00BF00BF012084F835
:1021D000510000BF002084F8500000BF019806E7BE
:1021E000042808D14FF0E021096941F004014FF0C3
:1021F000E022116107E04FF0E021096921F00401BC
:102200004FF0E02211617047704770B504462546D3
:10221000681EB0F1807F01D301200FE0681E4FF0EF
:10222000E02148610F214FF0FF3000F067FF0020F0
:102230004FF0E021886107200861002070BD10B5D3
:10224000FFF7E2FF10BD70477047024600BF92F8EB
:102250003800012801D102207047012082F838009F
:1022600000BF022082F839001068406820F070003A
:1022700013685860106840680B681843136858600A
:102280001068806820F0800013689860106880688B
:102290004B68184313689860012082F8390000BF2A
:1022A000002082F8380000BF00BFD5E710B5044613
:1022B0000CB9012010BD94F8390028B9002084F829
:1022C0003800204600F00CF8022084F83900211D67
:1022D000206801F05DFB012084F839000020E9E767
:1022E00008B50A4A016891420FD100BF0021009150
:1022F0000749096841F01001054A11601146096853
:1023000001F01001009100BF00BF08BD00100040A7
:102310004038024001460868C06840F001000A6881
:10232000D0600868006840F001000A681060002072
:102330007047704710B5044620680069C0F340003C
:10234000D8B12068C068C0F34000B0B16FF002009F
:1023500021680861012020762068806900F0030070
:1023600018B12046FFF7E5FF05E0204600F0ADF884
:10237000204600F0ABF80020207620680069C0F30A
:102380008000D8B12068C068C0F38000B0B16FF0A1
:10239000040021680861022020762068806900F42A
:1023A000407018B12046FFF7C4FF05E0204600F05A
:1023B0008CF8204600F08AF800202076206800691A
:1023C000C0F3C000D8B12068C068C0F3C000B0B18D
:1023D0006FF0080021680861042020762068C06939
:1023E00000F0030018B12046FFF7A3FF05E02046E8
:1023F00000F06BF8204600F069F800202076206895
:102400000069C0F30010D8B12068C068C0F30010A4
:10241000B0B16FF0100021680861082020762068B4
:10242000C06900F4407018B12046FFF782FF05E054
:10243000204600F04AF8204600F048F800202076B8
:102440002068006900F0010058B12068C06800F001
:10245000010030B16FF0010021680861204600F0F2
:1024600037F820680069C0F3C01058B12068C06810
:10247000C0F3C01030B16FF08000216808612046C1
:10248000FFF7E1FE20680069C0F3801058B12068B2
:10249000C068C0F3801030B16FF04000216808615F
:1024A000204600F01BF820680069C0F3401058B1C6
:1024B0002068C068C0F3401030B16FF02000216880
:1024C00008612046FFF7C0FE10BD7047704700004E
:1024D0000121014A1170704770000020704710B54B
:1024E00004460CB9012010BD242084F83900204690
:1024F00000F0EEF80020E06384F8390084F83A0038
:1025000000BF84F8380000BF00BFECE77047000050
:102510002DE9F0470446206805682068C6682068F1
:1025200047694FF00008C14605F00F08B8F1000FE9
:102530000AD105F0200038B106F0200020B1204675
:1025400001F026FBBDE8F087B8F1000F6DD007F071
:10255000010018B906F49070002866D005F001005B
:1025600030B106F4807018B1E06B40F00100E06318
:1025700005F0040030B107F0010018B1E06B40F045
:102580000200E06305F0020030B107F0010018B16D
:10259000E06B40F00400E06305F0080030B107F0A4
:1025A000010018B1E06B40F00800E063E06B68B335
:1025B00005F0200028B106F0200010B1204601F0FF
:1025C000E7FA20684069C0F38019E06B00F008006A
:1025D00010B9B9F1000F22D0204601F0AFFA2068FF
:1025E000406900F04000B0B12068406920F0400030
:1025F00021684861606B50B11748616B0865606B7A
:10260000FEF76AFB10B1606B016D88470CE0204655
:10261000FFF77CFF08E02046FFF778FF04E0204644
:10262000FFF774FF0020E0638CE705F0800030B115
:1026300006F0800018B1204601F0ACFC82E705F0FE
:10264000400030B106F0400018B1204601F086FA93
:1026500078E700BF76E70000853A000810B5044629
:102660000CB9012010BDA06900B100E000BF94F8D2
:10267000390028B9002084F83800204600F05AF8C4
:10268000242084F839002068C06820F400502168B4
:10269000C860204601F0CAFA2068006920F4904022
:1026A000216808612068406920F02A00216848619B
:1026B0002068C06840F400502168C8600020E063D2
:1026C000202084F8390084F83A000020CAE700008E
:1026D00010B5044612492068884210D1114800689C
:1026E00020F400200F49086003210F48FEF72EFD5B
:1026F000606BFEF705FB3420FEF768FF0EE00B4928
:10270000206888420AD10748006820F080400549C7
:1027100008604FF4C0710648FEF718FD10BD0000B8
:10272000004C004040380240000002400078004069
:102730000010024010B586B0044634492068884233
:102740003FD100BF002000903148006840F40020D5
:102750002F4908600846006800F40020009000BF80
:1027600000BF03200190022002900120039003206B
:1027700004900820059001A92648FEF7A7FD2648E9
:102780002649086040054860002124488160C160F6
:102790004FF4806101610021416181614FF48071DA
:1027A000C1610902016200214162FEF7FBFB18B121
:1027B00080211BA001F072FC00BF18486063846395
:1027C00022E01B49206888421ED100BF00200090F3
:1027D0000F48006840F080400D49086008460068D6
:1027E00000F08040009000BF00BF4FF4C070019027
:1027F00002200290012003900320049008200590FD
:1028000001A90C48FEF762FD06B010BD004C004067
:102810004038024000000240406002404008002072
:102820002E2E2F5372632F75736172742E63000006
:10283000007800400010024077B581B0044615468C
:1028400094F83A00202850D1029800B115B901201F
:1028500004B070BD00BF94F83800012801D10220F7
:10286000F6E7012084F8380000BF0298A062A58531
:102870000020E063222084F83A001D48616BC863A1
:102880001C48616B08641C48616BC8640020616B64
:10289000086502AE32682368191D2B46606BFEF78F
:1028A000F7FB00BF002000902068006800902068BF
:1028B0004068009000BF00BF00BF002084F83800CF
:1028C00000BF2068C06840F480702168C86020683C
:1028D000406940F00100216848612068406940F08B
:1028E0004000216848610020B2E70220B0E7000004
:1028F000E93A00082F3B0008993A000810B5044651
:1029000003492068884201D1FEF7DAF910BD0000C2
:10291000004C004070472DE9F84304460D4616462A
:102920001F464FF0000994F8390020285CD105B10A
:1029300016B90120BDE8F88300BF94F838000128DB
:1029400001D10220F6E7012084F8380000BF002002
:10295000E063212084F83900FEF7CCFD8146A6848F
:10296000E6842BE0E08C401EE084A068B0F5805F38
:1029700016D14B46002280212046009701F03EFBF5
:1029800008B10320D6E7A846B8F80000C0F3080055
:1029900021684860206908B9AD1C0FE06D1C0DE08E
:1029A0004B46002280212046009701F027FB08B10A
:1029B0000320BFE715F8010B21684860E08C002870
:1029C000D0D14B46002240212046009701F016FB53
:1029D00008B10320AEE7202084F8390000BF0020B2
:1029E00084F8380000BFA5E70220A3E7704708B5C8
:1029F0000A20FEF79CFB702000906B46012200210C
:102A00001E2000F0F1FE202000F05AF80120009076
:102A10006B46012202211E2000F0E6FE0A20FEF78E
:102A200086FB08BD2DE9F0470446234B062203210F
:102A30001E2000F0C5FC2048057890F801A086789B
:102A4000C77890F8048090F805904AEA052000B213
:102A500000EE100AB8EEC00A84ED000A49EA082028
:102A600000B200EE100AB8EEC00A84ED010A47EA8F
:102A7000062000B200EE100AB8EEC00A84ED020A89
:102A800094ED000A0D48D0ED000A80EE201A84ED86
:102A9000001A94ED010AD0ED000A80EE201A84EDB0
:102AA000011A94ED020AD0ED000A80EE201A84ED9E
:102AB000021ABDE8F0870000210000201800002065
:102AC00018B5044600946B46012211461E2000F002
:102AD0008BFE1F480470802C20D006DC202C0BD0ED
:102AE000402C0FD0602C31D112E0A02C1CD0C02C77
:102AF00020D0E02C2AD123E09FED160A164880ED65
:102B0000000A23E09FED150A134880ED000A1DE03E
:102B10009FED130A104880ED000A17E09FED110A9F
:102B20000D4880ED000A11E09FED0F0A0A4880ED84
:102B3000000A0BE09FED0D0A074880ED000A05E052
:102B40009FED0B0A044880ED000A00BF00BF18BDCE
:102B500020000020000080441800002000004044B5
:102B6000008019440080CF430080B4430080994323
:102B700000005B4308B5012000906B460122022152
:102B80001E2000F031FE08BD00BFFEE710B501F0C9
:102B90006BFA10BD10B517480068401C1549086055
:102BA000084600680521B0FBF1F201FB120000BBF2
:102BB0001148007848B901200F490870FDF75EFF01
:102BC0000E490860FDF738FF13E000200A4908703D
:102BD000FDF754FF0A490860084801680848006882
:102BE000FDF718FEBDEEC00A064880ED010AFDF7AC
:102BF00028FF10BD04000020000000200C00002071
:102C0000080000201000002010B5024800F01CF859
:102C100010BD00007C00002000B509480068401C81
:102C200007490860084600680A21B0FBF1F201FB81
:102C3000120020B90348FFF7F5FEFFF79BFF00BD28
:102C40001C000020B400002030B589B004460020EC
:102C50000590069007900890BB208DF81400002284
:102C600004212548FEF740FC32200F2301AA05A9C4
:102C700000902248FFF7A5F9012204211E48FEF723
:102C800033FC9DF806009DF8051000EB012005B20D
:102C900025809DF808009DF8071000EB012005B283
:102CA00065809DF80A009DF8091000EB012005B22F
:102CB000A5809DF80C009DF80B1000EB012000B2E0
:102CC000A0849DF80E009DF80D1000EB012005B2C8
:102CD000E5809DF810009DF80F1000EB012005B273
:102CE00025819DF812009DF8111000EB012005B21E
:102CF000658109B030BD000000080240A008002036
:102D000010B580216B2000F047F80A20FEF70FFA7B
:102D10000721682000F040F80A20FEF708FA012198
:102D20006B2000F039F80A20FEF701FA00216C2030
:102D300000F032F80A20FEF7FAF90021192000F01D
:102D40002BF80A20FEF7F3F903211A2000F024F8EB
:102D50000A20FEF7ECF903211D2000F01DF80A20DF
:102D6000FEF7E5F918211B2000F016F80A20FEF7FF
:102D7000DEF908211C2000F00FF80A20FEF7D7F931
:102D80006420FEF7D4F9012204210248FEF7ACFBCF
:102D900010BD0000000802403EB504460D468DF807
:102DA00008408DF80950002204210B48FEF79CFBD7
:102DB0000120FEF7BCF94FF4FA70022301AA02A920
:102DC00000900648FFF7FDF8012204210248FEF7B3
:102DD0008BFB9DF805003EBD00080240A0080020C6
:102DE00008B500BF002000900648006840F40010BD
:102DF000044908600846006800F40010009000BF15
:102E000000BF08BD3038024000B587B000BF0020C9
:102E100001904F48006840F004004D4908600846A2
:102E2000006800F00400019000BF00BF00BF002058
:102E300001900846006840F080000860084600687D
:102E400000F08000019000BF00BF00BF0020019093
:102E50000846006840F0010008600846006800F07D
:102E60000100019000BF00BF00BF00200190084694
:102E7000006840F0100008600846006800F010008C
:102E8000019000BF00BF00BF00200190084600680D
:102E900040F0080008600846006800F00800019053
:102EA00000BF00BF00BF002001900846006840F04E
:102EB000020008600846006800F00200019000BFB0
:102EC00000BF01224AF204012248FEF70DFB012255
:102ED00011032148FEF708FB012280211F48FEF75D
:102EE00003FB01224FF440711D48FEF7FDFA4AF240
:102EF000040002900120039000200490059002A994
:102F00001448FEF7E3F94FF480500290012003903B
:102F100000200490059002A90F48FEF7D7F9802001
:102F200002900120039000200490059002A90B4814
:102F3000FEF7CCF94FF4407002900120039000207E
:102F40000490059002A90648FEF7C0F907B000BD3D
:102F5000303802400008024000100240000C0240DD
:102F60000004024010B5012202213420FEF749FB83
:102F70003420FEF739FB002211460D20FEF741FBFD
:102F80000D20FEF731FB022211463620FEF739FBF9
:102F90003620FEF729FB10BD10B510481049086017
:102FA0004FF48270486000210D488160C1600221A9
:102FB000016101214161490281613021C16100212A
:102FC0000162416281620A21C162FEF7B3FE18B15B
:102FD000452104A001F062F810BD0000003001405E
:102FE000A00800202E2E2F5372632F7370692E635A
:102FF000000000001CB50F480F4908604F204860D2
:1030000000210D48816040F2CF71C160FFF74EF999
:1030100018B13C2109A001F041F800200090019076
:1030200069460548FFF711F918B1432103A001F0E3
:1030300035F81CBD00100040F80800202E2E2F533C
:1030400072632F74696D2E630000000010B50C4888
:103050000C4908604FF4165048600021094881600F
:10306000C16001610C21416100218161C161FFF7F3
:10307000F5FA18B1442104A001F010F810BD0000C9
:10308000004C0040C00700202E2E2F5372632F7576
:10309000736172742E63000010B50C480C4908600F
:1030A0004FF4E1304860002109488160C16001614E
:1030B0000C21416100218161C161FFF7CFFA18B194
:1030C000562104A000F0EAFF10BD00000078004087
:1030D000000800202E2E2F5372632F7573617274B7
:1030E0002E63000000BFFEE7704700000248006842
:1030F000C0F30220704700000CED00E010B500287E
:1031000007DA0A07140E054A00F00F031B1FD454F8
:1031100003E00A07130E024A135410BD18ED00E035
:1031200000E400E070B50446002555480078092801
:1031300075D2DFE800F005222B34414A638C9700FA
:10314000B52C03D101204E49087015E0D32C13D1C2
:103150004C48006880B10920494908704948006816
:10316000C18848480068C088401C464A1268D08020
:1031700044480068006844547FE0622C03D1022078
:103180003F49087001E001F09FFD76E0204601F024
:1031900001FC3D4804800320394908706DE0204659
:1031A00001F0F8FB3848008840EA042036490880DE
:1031B00004203349087060E0204601F0EBFB3348FF
:1031C000048005202E49087057E0204601F0E2FBFC
:1031D0002E48008840EA04202C49088002F096FA24
:1031E00010B101F071FD08E028480088002801DDD9
:1031F000062000E00720224908703EE0204601F04A
:10320000C9FB21480088A0F20A4048B1A0F52C5023
:10321000F73850B9204601F025FE05460AE02BE0BC
:10322000204601F0DFFD054604E0204601F0C0FD28
:10323000054600BF00BF002D02DA01F045FD04E0A5
:10324000002D02DD07200E490870002515E010480A
:103250000078A04202D001F037FD02E008200849C2
:1032600008700AE00B480078A04202D101F080FE0D
:10327000054601F029FD00E000BF00BFE8B270BDC7
:1032800048000020340000204E00002052000020A2
:1032900056000020570000207047F8B504460D4640
:1032A00016462B46002280212046009600F009F8A1
:1032B00028B1606D40F0200060650320F8BD00205B
:1032C000FCE72DE9F04104460E4617461D46DDF8A1
:1032D00018803FE0681CE0B32DB1FEF70BF9A0EBBE
:1032E0000800A84236D32068406820F0E00021683A
:1032F00048606068B0F5827F0DD1A068B0F5004FDE
:1033000003D0A068B0F5806F05D12068006820F078
:10331000400021680860A06AB0F5005F0ED100BFD0
:10332000206800684DF6FF71084021680860206839
:10333000006840F400502168086000BF012084F854
:10334000510000BF002084F8500000BF0320BDE8FA
:10335000F081FFE7206880683040B04201D1012051
:1033600000E00020B842B5D10020F0E7704700002F
:1033700010B504460C48FFF7B2F80C480A4908603B
:103380000846446000218160C16001610C214161F7
:1033900000218161C161FFF761F920B14FF48571AE
:1033A00003A000F07BFE10BDC0070020004C0040D1
:1033B0002E2E2F5372632F75736172742E6300006B
:1033C000F0B506460F4614461D4600F09FF8002152
:1033D00041EA4601C8B200F03BF900F0C1F93846B5
:1033E00000F036F900F0BCF900F090F8012101EB93
:1033F0004601C8B200F02CF900F0B2F90BE0012C44
:1034000003D100F013F8287002E000F047F82870AC
:103410006D1C601EC4B2002CF1D100F0B1F8002088
:10342000F0BD00BF411E081EFCD1704700B51A4810
:10343000006820F44020184908600022002324E09E
:1034400015481430006820F4807013491431086066
:103450004FF4C870FFF7E5FF0F481430006840F4E0
:1034600080700D49143108605006020E081F006874
:1034700000F40070091F086008B142F001024FF427
:10348000C870FFF7CEFF581CC3B2082BD8DB00F082
:1034900031F9104600BD00000004024000B51A4892
:1034A000006820F44020184908600022002324E02E
:1034B00015481430006820F48070134914310860F6
:1034C0004FF4C870FFF7ADFF0F481430006840F4A8
:1034D00080700D49143108605006020E081F006804
:1034E00000F40070091F086008B142F001024FF4B7
:1034F000C870FFF796FF581CC3B2082BD8DB00F04A
:1035000071F8104600BD00000004024000B51B48E1
:10351000006820F44020194908600846006840F41B
:103520008020086015481430006840F4007013498A
:10353000143108600846006840F4807008604FF459
:10354000C870FFF76EFF0D481430006820F400705B
:103550000A49143108604FF4C870FFF762FF07484A
:103560001430006820F480700449143108604FF46E
:10357000C870FFF756FF002000BD000000040240A5
:1035800000B51748006820F4402015490860084637
:10359000006840F48020086011481430006820F46E
:1035A00080700F49143108600846006820F40070EC
:1035B00008604FF4C870FFF734FF09481430006802
:1035C00040F480700649143108600846006840F4F1
:1035D000007008604FF4C870FFF723FF00BD0000C3
:1035E0000004024000B51948006820F480701749B3
:1035F000086016481438006820F440201349143934
:1036000008600846006840F4802008600F480068A1
:1036100020F400700D4908604FF4C870FFF701FFF7
:103620000A48006840F48070084908604FF4C87088
:10363000FFF7F7FE0548006820F480700349086032
:103640004FF4C870FFF7EDFE00BD00001404024007
:1036500000B502462648006820F44020244908604E
:103660000846006840F48020086021481430006853
:1036700020F480701E4914310860002333E002F00A
:10368000800040B11A481430006840F400701849B6
:103690001431086007E016481430006820F4007008
:1036A0001349143108605006020E4FF4C870FFF73A
:1036B000B8FE0F481430006840F480700C49143193
:1036C00008604FF4C870FFF7ACFE0948143000687A
:1036D00020F480700649143108604FF4C870FFF779
:1036E000A0FE581CC3B2082BC9DB002000BD00009F
:1036F0000004024000B51948006820F480701749A2
:10370000086016481438006820F440201349143922
:1037100008600846006840F4802008600F48006890
:1037200040F400700D4908604FF4C870FFF779FE4F
:103730000A48006840F48070084908604FF4C87077
:10374000FFF76FFE0548006820F4807003490860A9
:103750004FF4C870FFF765FE00BD0000140402407E
:1037600008B5002000901F48006820F440201D4943
:1037700008601C481430006840F400701949143186
:1037800008604FF4C870FFF74CFE1648143000680C
:1037900040F480701349143108604FF4C870FFF78B
:1037A00040FE0CE09DF80000401CC0B200909DF867
:1037B0000000FA2803DDFFF7E3FE012008BD0948F9
:1037C0001030006800F400700649103108600028CD
:1037D000E8D1081D006820F48070091D08600020F1
:1037E000ECE70000000402402DE9F04105460E46DA
:1037F00017469846FFF78AFE002141EA4501C8B204
:10380000FFF726FFFFF7ACFF3046FFF721FFFFF77A
:10381000A7FF002407E018F80400FFF719FFFFF7DF
:103820009FFF601CC4B2BC42F5DBFFF7A9FE00207D
:10383000BDE8F08110B5FDF763FEFEF700FD10BD99
:1038400010B592B000BF002000902E48006840F0F4
:1038500080502C4908600846006800F080500090B5
:1038600000BF00BF00BF002000902748006840F460
:103870004040254908600846006800F44040009038
:1038800000BF00BF012006900004079002200C90AA
:1038900041050D910C210E91A0210F910221109153
:1038A0000421119106A8FEF73DF818B1AE2117A02A
:1038B00000F0F4FB0F200190022002900020039002
:1038C0004FF4A05004904FF480500590052101A8BA
:1038D000FDF7EAFE18B1BC210CA000F0DFFBFDF7FC
:1038E000A3FF4FF47A71B0FBF1F42046FEF78DFC94
:1038F0000420FEF775FC00221146501EFDF781FEE4
:1039000012B010BD40380240007000402E2E2F53E0
:1039100072632F6D61696E2E6300000014480068A9
:1039200040F47000124908601248006840F001003D
:103930001049086000200F49083108600D480068F0
:103940000D4908400B4908600C48091D0860081F14
:10395000006820F48020091F0860002005490C3110
:1039600008604FF00060024980390860704700002D
:1039700088ED00E000380240FFFFF6FE1030002422
:1039800010B50248FEF7D6FC10BD0000F808002074
:10399000002202682C4B98420ED0B0F1804F0BD021
:1039A0002A4B984208D02A4B984205D0294B98427E
:1039B00002D0294B984201D1012300E000231BB122
:1039C00022F070024B681A431F4B984220D0B0F18E
:1039D000804F1DD01D4B98421AD01D4B984217D0D6
:1039E0001C4B984214D01C4B984211D01B4B984250
:1039F0000ED01B4B98420BD01A4B984208D01A4B52
:103A0000984205D0194B984202D0194B984201D1E7
:103A1000012300E000231BB122F44072CB681A435B
:103A200002608B68C3620B688362074B984202D0C6
:103A3000094B984201D1012300E000230BB10B692F
:103A4000036301234361704700000140000400400C
:103A500000080040000C004000040140004001400C
:103A6000004401400048014000180040001C004094
:103A70000020004010B50248FEF74AFD10BD0000CE
:103A8000C007002070B50546AC6B0020E085E084DF
:103A90002046FEF73BFD70BD70B506460025B46BB1
:103AA00020684069C0F3C01594F83900212805D179
:103AB00025B10020E084204600F060F820684069CD
:103AC000C0F3801594F83A00222805D125B10020D2
:103AD000E085204600F032F8E06B40F01000E06333
:103AE0002046FEF713FD70BD70B50546AC6B286827
:103AF000006800F48070B0B90020E0852068C068DC
:103B000020F480702168C8602068406920F00100BE
:103B1000216848612068406920F0400021684861C0
:103B2000202084F83A002046FEF7E8FE70BD70B50C
:103B30000446A56B2846FEF7EDFE70BD0168C96816
:103B400021F490710268D1600168496921F0010196
:103B500002685161202180F83A10704710B5044680
:103B60002068C06820F040002168C860202084F8E8
:103B700039002046FEF73AFF002010BD0168C968F1
:103B800021F0C0010268D160202180F8391070470F
:103B900070B5044694F83A00222844D1A068B0F5E4
:103BA000805F13D1A56A206940B920684068C0F3DE
:103BB00008002880A06A801CA06219E02068406884
:103BC000C0B22880A06A401CA06211E0206938B908
:103BD00020684068C1B2A26A501CA062117007E060
:103BE0002068406800F07F01A26A501CA06211703A
:103BF000E08D401E80B2E08598B92068C06820F44E
:103C000090702168C8602068406920F00100216838
:103C10004861202084F83A002046FEF76FFE00201D
:103C200070BD0020FCE70220FAE700002DE9F0411A
:103C3000044600252068056925F44055E0680543E1
:103C4000206805612068C56849F20C6085432169D8
:103C5000A068084361690843E16908430543206897
:103C6000C5602068456925F44075A0690543206852
:103C70004561E069B0F5004F7ED1C44920688842B3
:103C800003D0C349206888425DD1FDF7E3FD00EB16
:103C9000C00101EB001061684900B0FBF1F0642144
:103CA000B0FBF1F00601FDF7D5FD00EBC00101EB23
:103CB000001061684900B0FBF1F7FDF7CBFD00EBA8
:103CC000C00101EB001061684900B0FBF1F0642114
:103CD000B0FBF1F000EBC00101EB0010A7EB80009E
:103CE000322101EBC0006421B0FBF1F000F0F800DC
:103CF00006EB4006FDF7AEFD00EBC00101EB001046
:103D000061684900B0FBF1F7FDF7A4FD00EBC001CD
:103D100001EB001061684900B0FBF1F06421B0FBD9
:103D2000F1F000EBC00101EB0010A7EB80003221A5
:103D300001EBC0006421B0FBF1F000F0070030445B
:103D40002168886020E1FDF775FD00EBC00101EB03
:103D5000001061684900B0FBF1F06421B0FBF1F0A4
:103D60000601FDF767FD00EBC00101EB0010616883
:103D70004900B0FBF1F700E045E0FDF75BFD00EB2B
:103D8000C00101EB001061684900B0FBF1F0642153
:103D9000B0FBF1F000EBC00101EB0010A7EB8000DD
:103DA000322101EBC0006421B0FBF1F000F0F8001B
:103DB00006EB4006FDF73EFD00EBC00101EB0010F5
:103DC00061684900B0FBF1F7FDF734FD00EBC0017D
:103DD00001EB001061684900B0FBF1F06421B0FB19
:103DE000F1F000EBC00101EB0010A7EB80003221E5
:103DF00001EBC0006421B0FBF1F000F0070030449B
:103E000021688860C0E061492068884203D0604929
:103E1000206888425CD1FDF71DFD00EBC00101EB7D
:103E2000001061688900B0FBF1F6FDF713FD00EBAF
:103E3000C00101EB001061688900B0FBF1F0642162
:103E4000B0FBF1F000EBC00101EB0010A6EB80002D
:103E5000322101EB00106421B0FBF1F000F0F0061C
:103E6000FDF7F8FC00EBC00101EB00106168890070
:103E7000B0FBF1F06421B0FBF1F006EB0016FDF7AA
:103E8000E9FC00EBC00101EB001061688900B0FBA8
:103E9000F1F7FDF7DFFC00EBC00101EB00106168FA
:103EA0008900B0FBF1F06421B0FBF1F000EBC00140
:103EB00001EB0010A7EB8000322101EB0010642120
:103EC000B0FBF1F000F00F003044216888605BE047
:103ED000FDF7B0FC00EBC00101EB00106168890048
:103EE000B0FBF1F6FDF7A6FC00EBC00101EB001002
:103EF00061688900B0FBF1F06421B0FBF1F000EBE8
:103F0000C00101EB0010A6EB8000322101EB001094
:103F10006421B0FBF1F000F0F006FDF78BFC00EB44
:103F2000C00101EB001061688900B0FBF1F0642171
:103F3000B0FBF1F006EB0016FDF77CFC00EBC001D6
:103F400001EB001061688900B0FBF1F7FDF772FC2E
:103F500000EBC00101EB001061688900B0FBF1F0DB
:103F60006421B0FBF1F000EBC00101EB0010A7EB06
:103F70008000322101EB00106421B0FBF1F000F071
:103F80000F00304421688860BDE8F08100100140D6
:103F900000140140014691F8390021282CD188688D
:103FA000B0F5805F0FD10A6A1088C0F308000B6873
:103FB0005860086918B9086A801C086209E0086A34
:103FC000401C086205E00B6A581C086218780B68F0
:103FD0005860C88C401E80B2C88458B90868C06850
:103FE00020F080000B68D8600868C06840F040008E
:103FF0000B68D860002070470220FCE72DE9F041F3
:1040000004460D4617469846069E21E0701CF8B1FE
:104010002EB1FDF76FFAA0EB0800B04218D9206866
:10402000C06820F4D0702168C8602068406920F022
:10403000010021684861202084F8390084F83A00A2
:1040400000BF002084F8380000BF0320BDE8F081E5
:10405000206800682840A84201D1012000E000202B
:10406000B842D3D00020F1E770B500240025FCF75A
:1040700019FE18B1FCF7F6FD60B270BD06E0FCF762
:1040800017FE05462846FFF74DF80443FCF7F2FDFE
:104090000028F4D160B2F0E700BFFEE700BFFEE702
:1040A0000FB4054B10B503A9044A029800F0DAF8E2
:1040B00010BC5DF814FB0000214D000878000020C2
:1040C00002E008C8121F08C1002AFAD170477047E1
:1040D000002001E001C1121F002AFBD1704700003F
:1040E0002DE9FF5F82B00021DDE90430020DDDF82B
:1040F00040B0034318D044F61050A2F2FF324243BE
:104100001514119801281FD0A5EB0B00401C5FEA85
:10411000000A4FF000064E4FDFF83891B046504687
:1041200015D5CAF1000413E0119801244AA301280F
:1041300001D16FEA0B010298119AC0E90031C0E980
:10414000024206B0BDE8F09FCBF10000DFE7044675
:104150000021404A491842EB0450CDE9001012E01A
:10416000E00707D032463B4640464946FCF78CFA0A
:104170008046894632463B4610461946FCF784FA8B
:1041800006460F466410002CEAD1DDE90401DDE9A2
:104190000023BAF1000F06DAFCF776FA42464B46E6
:1041A000FCF772FA05E0FCF7A3F842464B46FCF731
:1041B0009FF804460E460022284BFCF7EFFA03D87E
:1041C0004FF0FF30014607E00022254B20463146E4
:1041D000FCF7B3F9FCF7CAFA102409E0002C0ADB5B
:1041E0000A220023FBF7FEFF039B30321A55641EA0
:1041F00050EA0102F2D1641C039AC4F11103144481
:10420000119A012A03D0012208430DD10AE0084384
:1042100004D000204FF0110B119072E7A3EB0B05B7
:104220006D1E0DE05B4504DD4FF0000205F1010558
:1042300004E003DA4FF00002A5F10105002AECD0FA
:1042400002981199C0E90231C0E9004579E7000000
:10425000000014400000F03F300000000000F04378
:104260000000E03F2DE9FF4F95B09B46894606468A
:1042700000250FE2252877D100242746F84A01219E
:10428000059400E0044316F8013F203B01FA03F0D7
:104290001042F7D130782A2811D06FF02F033078F0
:1042A000A0F13002092A16D8059A44F0020402EB64
:1042B000820203EB42021044761C0590EFE759F8A6
:1042C000042B0592002A03DA504244F4005405906E
:1042D00044F00204761C30782E2816D116F8010F0F
:1042E00044F004042A280DD06FF02F023078A0F19A
:1042F0003003092B09D807EB870302EB4303C718E8
:10430000761CF3E759F8047B761C30786C280FD0C4
:1043100006DC4C2817D068280DD06A2814D104E098
:10432000742810D07A280FD10DE044F400140AE06C
:1043300044F4801401E044F440147278824202D1C3
:1043400004F58014761C761C307866280BD013DCBC
:10435000582877D009DC002875D04528F6D04628A3
:10436000F4D047281AD19DE118E0632835D064289D
:1043700079D0652812D195E1702873D008DC6728C0
:10438000F1D069286FD06E280DD06F2806D1B5E026
:1043900073282CD0752875D0782874D05A46179970
:1043A00090476D1C75E1C4F30250022809D0032820
:1043B0000DD0D9F8001004280DD00D6009F10409C2
:1043C00067E1D9F80010EA17C1E90052F6E7D9F819
:1043D00000100D80F2E70D70F0E719F8041B8DF85E
:1043E000001000208DF80100EA46012003E059F892
:1043F00004AB4FF0FF3061074FF0000102D40DE035
:1044000008F101018846B9420FDA8045F8DB1AF855
:1044100008100029F4D108E008F101018846814222
:10442000FADB1AF808100029F6D105985B46A0EBD4
:10443000080721463846179A00F094FA284400EB02
:10444000080507E04DE029E10DE01AF8010B5A4696
:1044500017999047B8F10108F7D25B4621463846D4
:10446000179A13E142E00A220092C4F302524FF07D
:10447000000A022A08D059F804CB032A4FEAEC714B
:104480000AD00DE029E02AE009F1070121F0070236
:10449000F2E802C1914609E00FFA8CFC4FEAEC7198
:1044A000042A03D14FFA8CFC4FEAEC71002907DA99
:1044B0000A460021DCF1000C61EB02012D2202E032
:1044C000220504D52B228DF80420012203E0E20707
:1044D00001D02022F7E7904659E00A2102E010229D
:1044E0000DE010214FF0000A00910BE010224FF078
:1044F000000A44F004040827009203E008224FF069
:10450000000A0092C4F30252022A05D059F804CBE3
:104510000021032A08D009E009F1070121F0070270
:10452000F2E802C1914605E01FFA8CFC042A01D191
:104530000CF0FF0C4FF00008220728D5702806D099
:10454000009B83F0100353EA0A0305D00EE04022DB
:104550008DF80420012208E05CEA010206D0302236
:104560008DF804208DF8050002229046009B83F010
:10457000080353EA0A030AD15CEA010201D1620787
:1045800005D530228DF804204FF001087F1E5828F1
:1045900004D034A003900EA802900DE036A0F9E7F5
:1045A00053466046009AFBF71DFE84460398825CE2
:1045B0000298401E029002705CEA0100F0D102985D
:1045C00006A9081A00F1200A600702D524F48034F5
:1045D00000E00127574502DDA7EB0A0000E00020BC
:1045E00000EB0A01009005984144401A0590E00351
:1045F00006D45B462146179A059800F0B3F90544A6
:10460000002706E001A85A46C05D179990476D1C27
:104610007F1C4745F6DBE0030CD55B462146179A25
:10462000059800F09FF9054404E030205A46179998
:1046300090476D1C0099481E00900029F5DC08E0A9
:10464000029802995A460078491C0291179990479E
:104650006D1CBAF10001AAF1010AF1DC65E100006C
:104660000928010030313233343536373839616248
:10467000636465660000000030313233343536370C
:1046800038394142434445460000000000F058F9E3
:104690000544761C307800287FF4ECAD19B028462C
:1046A000BDE8F08F620700D4062709F1070222F067
:1046B000070CFCE80223E14603F000485FEA080C1F
:1046C00002D00FF2702C0DE05FEA045C02D50FF20D
:1046D000682C07E05FEAC47C02D00FF2602C01E096
:1046E000AFF2700C4FF0FF3823F00043CDF850C00C
:1046F00065280CD006DC452809D046281DD047285F
:104700003DD13DE0662818D067287ED138E00021F1
:10471000112F01DB112000E0781CCDE9000106A972
:104720000EA8FFF7DDFCDDE90F010E9A03910021D1
:10473000009207F1010A04914DE04FF0004000970C
:10474000CDE9011006A90EA8FFF7CAFCDDE90F02AA
:1047500003920E9B11990022DDF80CA000930492A5
:1047600011B9791C00EB010AB7EB0A0004D4C0F1BF
:10477000FF3007F1010A0490AAEB0700019044E022
:10478000012F00DA01270021112F01DD112000E0A7
:104790003846CDE9000106A90EA8FFF7A1FCDDE926
:1047A0000F010E9A0391002104910092BA4621074D
:1047B0000CD40399514500DA8A46BAF1010F05DDA0
:1047C000009AAAF10101515C302908D0B84202DAFE
:1047D00010F1040F06DA0121CDE9011015E0AAF16C
:1047E0000101E9E7002805DC049901440491AAEBE2
:1047F000000102E0411C514500DD8A460499401A3F
:10480000401C01904FF000400290200704D4019812
:10481000504501DBCDF8048000208DF84F00029850
:104820000DF14F07B0F1004F25D02B200E900298CC
:104830004FF0020800280CDA404202902D200E9022
:1048400007E00A210298FBF7E6FD3031029007F8F5
:10485000011DB8F10001A8F10108F2DC029800285E
:10486000EFD1791E0E980870307800F0200040F0EB
:10487000450007F8020D12A8C01B00F107081498A4
:10488000007800B1012000EB0A01019801EBE07112
:1048900005984144401A401E0590E00306D45B464B
:1048A0002146179A059800F05DF8054414980078A1
:1048B00018B15A46179990476D1CE00324D55B4602
:1048C0002146179A059800F04DF805441CE004981D
:1048D000002807DBDDE90301884203DD0098405C26
:1048E000179901E0179930205A469047049805F12E
:1048F0000105401C04900198401E019004D12E2017
:104900005A46179990476D1CBAF10001AAF1010AA5
:10491000DDDC05E017F8010B5A46179990476D1C2E
:10492000B8F10001A8F10108F4DC5B462146179AB2
:104930000598ABE62D0000002B00000020000000D1
:104940002DE9F041044600251E461746880404D48C
:1049500005E039462020B0476D1C641EF9D5284675
:10496000BDE8F0812DE9F041044600251E46904641
:10497000C80301D5302700E02027880404D505E0CE
:1049800041463846B0476D1C641EF9D52846BDE83F
:10499000F0810000054909780144044A1170044976
:1049A000097812781144024A1170704756000020AD
:1049B0005700002030B50346002009E014781D5C44
:1049C0002C441470547815782C445470441CA0B2B4
:1049D0008842F3DB30BD00002DE9F04F93B006466E
:1049E000894617469846002089490870894880F80A
:1049F0000090142288490EA8FBF756FCFCF77AFDBC
:104A00000021CDE90C01FCF775FDB9F1000F01D1D2
:104A1000012000E021208346B9F1000F01D12120BF
:104A200000E001200190EBE0FCF764FD0025044666
:104A3000DDE90C10CA1940EB0801101BA94100D296
:104A4000E3E04FF0000AD6E00EA850F82A003060EC
:104A50003068FCF7E9F800F037F91420FCF767FB41
:104A6000FFF702FB00F030F9FFF7FEFA00F02CF937
:104A7000282102A8FBF731FC01208DF808004FF433
:104A80000D600390306804900198ADF81400ADF803
:104A900016B062A03168FFF703FB142202A90620BA
:104AA00000F0E8FF00B9A4E00022C821062001F0D0
:104AB00017F8002803DA63A0FFF7F2FA99E06748D5
:104AC000002101608180C82064490880012048805D
:104AD00000208880062240F6060000F0CBFF20B9B7
:104AE0004FF0FF3013B0BDE8F08F0122C82140F62F
:104AF000060000F0F5FF002802DA4FF0FF30F1E782
:104B000024215648FBF7E9FB052054490880B9F1F8
:104B1000000F01D1072000E00220504988700220D8
:104B2000C870242242F2064000F0A4FF10B94FF0F2
:104B3000FF30D7E70122C82142F2064000F0D0FF43
:104B4000002802DA4FF0FF30CCE7012140F201707B
:104B500000F098F810B94FF0FF30C3E70122C821E8
:104B60004FF4837000F0BCFF002803DA00203C49BA
:104B7000087002E001203A4908703948007838BBD3
:104B80000122052142F2011000F08AF810B94FF01D
:104B9000FF30A7E70122114640F2012000F080F823
:104BA00010B94FF0FF309DE70122114640F201603D
:104BB00000F076F810B94FF0FF3093E7012211466C
:104BC00041F2012000F06CF810B94FF0FF3089E796
:104BD0000122114640F2014000F062F810B94FF096
:104BE000FF307FE701200A4908701EA0FFF758FA3E
:104BF00005E00AF1010ABAF1050FFFF425AF00BF85
:104C00000348007800283FF40FAF00BF002069E799
:104C10004C00002068000020AC5B00084750532087
:104C20005542585F4D53475F4346475F50525420AB
:104C3000636F6E6669677572653A2C25642D2D2D3C
:104C40002D0D0A00747279206E657874206261758A
:104C500064726174652D2D2D2D0D0A00380600201B
:104C60006000002047505320434F4E46494755525D
:104C70004520434F4D504C455445442D2D2D2D0D71
:104C80000A00000038B504460D46ADF800408DF826
:104C90000250032269464FF4837000F0EBFE38BDEA
:104CA00070B504460D46164629462046FFF7EAFF32
:104CB00008B9002070BD3246C8214FF4837000F05F
:104CC0000FFFC017401CF5E7002005490870054993
:104CD0000870054908700549088005490880704733
:104CE00048000020560000205700002052000020FD
:104CF0005400002010B503461A460CE0480000EBB3
:104D0000011000EBC11000EB012000EB0160014439
:104D100012F8010B414010780028EFD1084610BD71
:104D200013B50C464FF6FF73012269460248FDF7A2
:104D3000F2FD00981CBD000000080020FCF7E8FB15
:104D4000FEF77EFDFEF760F8FEF74AF8FEF7A4F9DD
:104D5000FEF722F9FEF74EF9FEF778F9FEF702F9B1
:104D60004FF4FA60FCF7E3F9FBF76EFFFDF7C8FFBD
:104D7000FBF76CFEFDF73BFE0B48FDF7CBFA64201A
:104D8000FCF7D5F90EE009480078012808D1002089
:104D900006490870FDF738FFFDF7FCFEFDF73CFF04
:104DA000FDF7F4FEEFE70000F80800207000002097
:104DB00010B501460020084A084B1B88D154074B08
:104DC0001B885B1C9BB2054C2380054C2488A342A6
:104DD00000DB012010BD0000380600205400002038
:104DE00052000020F0B504460027194D19480088EC
:104DF000282803D2174800882C541BE01548008847
:104E000028280DD114491248FFF774FF1349086090
:104E1000084601680E481E30FFF76CFF0F49086016
:104E20000C48008828381E21B0FBF1F201FB120665
:104E3000AC5500BF07480088401C80B20549088077
:104E400007490988884200DB01273846F0BD000089
:104E50003806002054000020C59D1C8164000020FD
:104E60005200002070B5014600243B4A3B480088B0
:104E7000082803D23948008811545FE03748008879
:104E800008280AD134480079142802DA3248007917
:104E900000E01420324B1B68187231480068007A19
:104EA00000EB4000082303EB80002C4B1B8898424A
:104EB00044D92A48008808380C25B0FBF5F605FBD4
:104EC0001603D1540B2B38D1244D2D88083D0C26C8
:104ED000B5FBF6F0204DAD7805F00106204D2D68AC
:104EE0001D352E541C4D2E791D4D2D6859352E54CF
:104EF000194D6E791A4D2D6831352E54164DB5F970
:104F0000065000EE105AB8EEC00ADFED160A20EE89
:104F1000200ADFED150A80EE201ABCEEC10A10EE61
:104F2000105AEEB20E4D2D6845352E540A4D6E784E
:104F30000B4D2D6809352E5400BF00BF074800886F
:104F4000401C80B2054B1880084B1B88984200DB40
:104F50000124204670BD00003806002054000020C7
:104F60003C00002000007F430000B44352000020BA
:104F700030B52DED088B89B00024FE48007801285B
:104F800004D0204609B0BDEC088B30BDFA4800883B
:104F900040F20A42811A90427ED01CDC40F201228B
:104FA000A0EB0201904278D00BDC042876D00528D3
:104FB00075D0B0F5827F73D0A0F20510002870D1B3
:104FC00056E303296ED0B1F5007F6CD0A1F2032126
:104FD0000029F4D1A0E140F6F752881A91427DD021
:104FE0000BDCA1F2F710002879D0B0F5807F0ED04D
:104FF000A0F209300028E2D116E3B0F5706F6FD04F
:10500000B0F5F05F6DD0B0F5245FD8D19DE2DB48FC
:10501000407D00F0010038B3D849097DD84A1268B4
:1050200082F85810D549497D01F0020121B10421CF
:10503000D34A126882F85810D049497D8811012856
:1050400005D10521CE4A126882F8581006E00228E0
:1050500004D10621CA4A126882F858100121C84AB0
:10506000126882F8591008E00020C549096881F8E3
:105070005800C349096881F85900C048C07DC0493B
:10508000096881F85A00BD48C069BD4909680861CE
:10509000BA488069BA4907E0C4E24BE143E1F6E26D
:1050A00042E103E339E1E6E109684861B348406A57
:1050B000B34909688861B148806A00EE100AB8EE09
:1050C000400ADFEDB00A20EE200AAD48006880ED0E
:1050D0000A0AAA48C06A00EE100A03E037E2ADE10E
:1050E00004E22AE2B8EE400ADFEDA60A20EE200A2A
:1050F000A348006880ED0B0AA048406C00EE100A3F
:10510000B8EE400ADFED9F0A20EE200A9C480068B6
:1051100080ED080A9948C06B00EE100AB8EEC00A8C
:10512000DFED980A20EE200A9548006880ED100A0D
:105130009248006B00EE100AB8EEC00ADFED910A4B
:1051400020EE200A8E48006880ED110A8B48406BE3
:1051500000EE100AB8EEC00ADFED8A0A20EE200A3F
:105160008748006880ED120A8448806B00EE100AC0
:10517000B8EEC00ADFED830A20EE200A80480068FE
:1051800080ED130A7D48006C00EE100AB8EEC00AEC
:10519000DFED7D0A20EE200ADFED7C0A20EE200AFA
:1051A0007748006880ED140A7448806C00EE100A9D
:1051B000B8EE400ADFED740A20EE200ADFED730A34
:1051C00020EE200A6E48006880ED090A6C490968E3
:1051D0008869FBF7FCF841EC1B0B9FED6D0B53EC62
:1051E000102BFBF785F841EC180B654909684869F5
:1051F000FBF7EDF841EC1B0B9FED670B53EC102B0D
:10520000FBF776F841EC190B5D4909680869FBF773
:10521000DEF841EC1B0B9FED600B53EC102BFBF702
:1052200067F841EC1A0B8DED028B8DED009B53EC72
:105230001A2B5BA0FEF734FF5148006890ED130A6B
:1052400010EE101A0846FBF7D3F841EC180B4C4847
:10525000006890ED120A10EE101A0846FBF7C8F825
:1052600041EC190B4648006890ED110A10EE101A37
:105270000846FBF7BDF841EC1A0B8DED028B8DED66
:10528000009B53EC1A2B51A0FEF70AFF3B48C07A53
:1052900000F0010020B33948C07A00F00200F8B1F4
:1052A0003648C07A00F00400D0B134488088A0F2BB
:1052B0006C70059031488079401E04902F48C07969
:1052C00003902E48007A02902C48407A01902B4897
:1052D000807A009000212A4A12689160D16000BF54
:1052E000FCF708F90021264A126803C22448016825
:1052F00003C93D4A03C23D480078401C3B49087041
:105300003B480078401C3A49087001203949087030
:10531000394908700124CAE100BF18480021374A02
:1053200012888154C3E100BF14480021334A128817
:105330008154BCE1114880681149096808610F482F
:1053400040680F49096848610C4800690C490968C0
:1053500088610A48406900EE100AB8EE400ADFEDA5
:10536000090A20EE200A0648006880ED0A0A034870
:10537000806945E0500000204E00002038060020E3
:10538000380000206F12833A35FA8E3CACC52737BF
:105390000000000080842E4100000000D012634114
:1053A0005F6770735F706F736974696F6E206C6193
:1053B000743A256C66202C6C6F6E3A256C66202C36
:1053C000616C743A256C66200D0A000067707320CA
:1053D00076656C204E3A2566202C453A2566202CB1
:1053E000443A2566200D0A004000002031000020CC
:1053F00030000020490000204A0000205200002018
:1054000000EE100AB8EE400A5FED220A20EE200AF4
:10541000AE48006880ED0B0AAD48C068AB4909682A
:10542000C861FCF767F80021A84A126803C2681C2B
:10543000C5B20120A7490870012438E1A448807A48
:10544000A249096881F85800A148806A00EE100A54
:10545000B8EE400ADFEDA00A20EE200A9B48006863
:1054600080ED080A9A4890F82F009849096881F859
:105470005A0001241BE19648808900EE100AB8EE1C
:10548000400ADFED950A20EE200A9048006880ED82
:105490000C0A8F48408900EE100AB8EE400ADFED92
:1054A0008E0A20EE200A8948006880ED0D0A8748A0
:1054B000006890ED0D0A10EE101A0846FAF798FFF2
:1054C00041EC180B8148006890ED0C0A10EE101AA0
:1054D0000846FAF78DFF41EC190B8DED008B53EC6C
:1054E000192B7EA0FEF7DCFD0124E0E07848C07CAB
:1054F00000F00400D0B176488089A0F26C7005906D
:105500007348807B401E04907148C07B03907048B4
:10551000007C02906E48407C01906D48807C009039
:1055200000216A4A12689160D16000BFFBF7E2FF78
:1055300000216F4A03C20124B9E0FBF7DBFF002121
:105540006C4A126803C20224B1E00124AFE0604853
:10555000006900EE100AB8EE400ADFED5F0A20EEA7
:10556000200A5A48006880ED100A5948406800EE49
:10557000100AB8EEC00ADFED580A20EE200A5348A0
:10558000006880ED110A5248806800EE100AB8EEFB
:10559000C00ADFED510A20EE200A4C48006880ED79
:1055A000120A4B48C06800EE100AB8EEC00ADFEDE0
:1055B0004A0A20EE200A4548006880ED130A444854
:1055C000806900EE100AB8EEC00A5FED910A20EE85
:1055D000200A5FED920A20EE200A3C48006880ED28
:1055E000140A3B48006A00EE100AB8EE400A5FED6C
:1055F0009A0A20EE200A5FED9B0A20EE200A33482B
:10560000006880ED090A01203049096881F85900D5
:1056100039480078401C3849087001203749087023
:10562000012444E0012442E0354800883C280ED0A3
:10563000442819D12648008A2449096888632448E7
:1056400090F8350021490968C86301240EE020481C
:10565000008A1E49096888631D4890F82D001B497F
:105660000968C863012401E0002400BF00BF1EE0F8
:1056700024480078012808D1154800882249098863
:10568000884202D102201F49087001240FE01D4802
:105690000078012808D10E4800881B4909888842F3
:1056A00002D1032017490870012400E000BF00BFA9
:1056B000002C08DD0548006801680D480068401AA4
:1056C00002490968486520465CE400003800002073
:1056D00038060020490000200AD7233C68646F7018
:1056E0003A2566202C76646F703A25660D0A000014
:1056F000400000203C000020310000204A00002033
:10570000520000204B000020620000202DE9F041F3
:1057100000260120AF490870AF48018840F20A42D4
:10572000881A914274D01CDC40F20122A1EB0200E5
:10573000914257D00BDC04294AD0052969D0B1F534
:10574000827F47D0A1F20511002972D1EEE0032833
:105750003FD0B0F5007F75D0A0F203200028F4D12F
:1057600035E040F6F752811A904273D00BDCA0F27C
:10577000F71000284ED0B0F5807F0ED0A0F209308F
:105780000028E2D1BFE0B1F5706F6BD0B1F5F05FEA
:105790007FD0B1F5245FD8D18FE09048008854289D
:1057A00007D08E4800885C2803D003208949087000
:1057B0000CE08B48007818B900208649087005E095
:1057C0008848007810B9022082490870D0E000BFF4
:1057D00000BF00BF814800885C2802D35B207F495E
:1057E0000880C5E07D4800881C2803D00320794943
:1057F00008700CE07A48007818B9002075490870E4
:1058000005E07848007810B1022072490870AFE0D6
:1058100078E09AE071480088342803D003206D496D
:1058200008700EE06E48007828B9002069490870B9
:1058300007E099E006E06B48007810B10220654966
:10584000087095E065480088122804D0032061495B
:10585000087006E040E06248007810B900205D4919
:10586000087085E05D480088142804D00320594959
:1058700008700DE00DE05A48007818B9002055492D
:10588000087005E05748007810B1022051490870AF
:105890006EE05548006818B902204E4908700BE0C8
:1058A0004F48007818B900204A49087004E0702178
:1058B0004D480068FAF711FD5AE04848008828284A
:1058C00003D003204349087005E04548007810B92B
:1058D0000020404908704BE040480088242803D04D
:1058E00003203C4908700CE03D48007818B90020BE
:1058F0003849087005E03B48007810B1022035496E
:10590000087035E034E035480088442807D0334833
:1059100000883C2803D003202E49087005E0304859
:10592000007810B900202B49087021E02B4800882E
:10593000022803D003202749087005E02848007892
:1059400010B100202349087012E024480088022882
:1059500003D003201F49087005E02148007810B1EA
:1059600000201C49087003E002201A49087000BF9B
:1059700000BF1848007838B1012804D0022805D0AB
:10598000032820D11CE000BF00261FE0FBF7B2FD7A
:10599000002504461548D0E90030154A991840F111
:1059A0000000091BA84108D2104830C000210A4855
:1059B0000088FFF767F900B96E1E4FF0FF3605E06B
:1059C0004FF0FF3602E04FF0FF3600BF00BF304619
:1059D000BDE8F081500000204E0000205200002061
:1059E0004C000020600000203C00002058000020F7
:1059F00040420F00016881600168C160002181742C
:105A0000704701608B1843608160C160028200238F
:105A1000837470470146D1E90202904201D101200E
:105A200070470020FCE70146D1E90230984201D1DD
:105A300000207047CB68581CC8601A784B68C8684B
:105A4000984203D10B8AC868C01AC8601046F0E7B4
:105A50000A468368591C43688B4201D1038AC91ADC
:105A6000C3688B4203D083681A70816001E0012310
:105A700083747047FEB506460C461546174903C9A0
:105A8000CDE9010100200090ADF80660ADF80850A6
:105A90006A460421901DFEF78DFF24B16A4629460F
:105AA0002046FEF787FF062101A800F067F80628C8
:105AB00001D00020FEBD3CB12946204600F05EF832
:105AC000A84201D00020F5E70221684600F056F810
:105AD000022801D00020EDE70120EBE7A45B0008DD
